{
  "abi": [
    {
      "inputs": [],
      "name": "AwlVoteCount",
      "outputs": [
        {
          "internalType": "uint256",
          "name": "",
          "type": "uint256"
        }
      ],
      "stateMutability": "view",
      "type": "function"
    },
    {
      "inputs": [],
      "name": "BnpVoteCount",
      "outputs": [
        {
          "internalType": "uint256",
          "name": "",
          "type": "uint256"
        }
      ],
      "stateMutability": "view",
      "type": "function"
    },
    {
      "inputs": [],
      "name": "Neutral",
      "outputs": [
        {
          "internalType": "uint256",
          "name": "",
          "type": "uint256"
        }
      ],
      "stateMutability": "view",
      "type": "function"
    },
    {
      "inputs": [],
      "name": "TotalVotes",
      "outputs": [
        {
          "internalType": "uint256",
          "name": "",
          "type": "uint256"
        }
      ],
      "stateMutability": "view",
      "type": "function"
    },
    {
      "inputs": [
        {
          "internalType": "uint256",
          "name": "vote",
          "type": "uint256"
        }
      ],
      "name": "placeVote",
      "outputs": [],
      "stateMutability": "nonpayable",
      "type": "function"
    },
    {
      "inputs": [],
      "name": "viewVoteStatus",
      "outputs": [
        {
          "internalType": "uint256",
          "name": "",
          "type": "uint256"
        },
        {
          "internalType": "uint256",
          "name": "",
          "type": "uint256"
        },
        {
          "internalType": "uint256",
          "name": "",
          "type": "uint256"
        },
        {
          "internalType": "uint256",
          "name": "",
          "type": "uint256"
        }
      ],
      "stateMutability": "view",
      "type": "function"
    }
  ],
  "bytecode": "608060405234801561001057600080fd5b5061020b806100206000396000f3fe608060405234801561001057600080fd5b50600436106100625760003560e01c80630b0821f6146100675780632fd73f021461008557806334b10a001461008d578063681c8eba1461009557806375dd32df146100ad578063a85c9700146100c2575b600080fd5b61006f6100ca565b60405161007c919061018d565b60405180910390f35b61006f6100d0565b61006f6100d6565b61009d6100dc565b60405161007c9493929190610196565b6100c06100bb366004610175565b6100ee565b005b61006f61016f565b60025481565b60035481565b60015481565b60005460015460025460035490919293565b806001141561011a576000546101059060016101b1565b6000556003546101169060016101b1565b6003555b80600214156101495760018054610130916101b1565b6001908155600354610141916101b1565b60035561016c565b6002546101579060016101b1565b6002556003546101689060016101b1565b6003555b50565b60005481565b600060208284031215610186578081fd5b5035919050565b90815260200190565b93845260208401929092526040830152606082015260800190565b600082198211156101d057634e487b7160e01b81526011600452602481fd5b50019056fea2646970667358221220813e4e915424777ce6c5f56e535bd3204bbbe6be98ef4112cf05759ccc48d0ee64736f6c63430008000033",
  "bytecodeSha1": "df4a2aaa282dd1ec3df621680b60da3ae9e26150",
  "compiler": {
    "evm_version": "istanbul",
    "optimizer": {
      "enabled": true,
      "runs": 200
    },
    "version": "0.8.0+commit.c7dfd78e"
  },
  "contractName": "Election",
  "language": "Solidity",
  "natspec": {
    "kind": "dev",
    "methods": {},
    "version": 1
  },
  "opcodes": "PUSH1 0x80 PUSH1 0x40 MSTORE CALLVALUE DUP1 ISZERO PUSH2 0x10 JUMPI PUSH1 0x0 DUP1 REVERT JUMPDEST POP PUSH1 0x4 CALLDATASIZE LT PUSH2 0x62 JUMPI PUSH1 0x0 CALLDATALOAD PUSH1 0xE0 SHR DUP1 PUSH4 0xB0821F6 EQ PUSH2 0x67 JUMPI DUP1 PUSH4 0x2FD73F02 EQ PUSH2 0x85 JUMPI DUP1 PUSH4 0x34B10A00 EQ PUSH2 0x8D JUMPI DUP1 PUSH4 0x681C8EBA EQ PUSH2 0x95 JUMPI DUP1 PUSH4 0x75DD32DF EQ PUSH2 0xAD JUMPI DUP1 PUSH4 0xA85C9700 EQ PUSH2 0xC2 JUMPI JUMPDEST PUSH1 0x0 DUP1 REVERT JUMPDEST PUSH2 0x6F PUSH2 0xCA JUMP JUMPDEST PUSH1 0x40 MLOAD PUSH2 0x7C SWAP2 SWAP1 PUSH2 0x18D JUMP JUMPDEST PUSH1 0x40 MLOAD DUP1 SWAP2 SUB SWAP1 RETURN JUMPDEST PUSH2 0x6F PUSH2 0xD0 JUMP JUMPDEST PUSH2 0x6F PUSH2 0xD6 JUMP JUMPDEST PUSH2 0x9D PUSH2 0xDC JUMP JUMPDEST PUSH1 0x40 MLOAD PUSH2 0x7C SWAP5 SWAP4 SWAP3 SWAP2 SWAP1 PUSH2 0x196 JUMP JUMPDEST PUSH2 0xC0 PUSH2 0xBB CALLDATASIZE PUSH1 0x4 PUSH2 0x175 JUMP JUMPDEST PUSH2 0xEE JUMP JUMPDEST STOP JUMPDEST PUSH2 0x6F PUSH2 0x16F JUMP JUMPDEST PUSH1 0x2 SLOAD DUP2 JUMP JUMPDEST PUSH1 0x3 SLOAD DUP2 JUMP JUMPDEST PUSH1 0x1 SLOAD DUP2 JUMP JUMPDEST PUSH1 0x0 SLOAD PUSH1 0x1 SLOAD PUSH1 0x2 SLOAD PUSH1 0x3 SLOAD SWAP1 SWAP2 SWAP3 SWAP4 JUMP JUMPDEST DUP1 PUSH1 0x1 EQ ISZERO PUSH2 0x11A JUMPI PUSH1 0x0 SLOAD PUSH2 0x105 SWAP1 PUSH1 0x1 PUSH2 0x1B1 JUMP JUMPDEST PUSH1 0x0 SSTORE PUSH1 0x3 SLOAD PUSH2 0x116 SWAP1 PUSH1 0x1 PUSH2 0x1B1 JUMP JUMPDEST PUSH1 0x3 SSTORE JUMPDEST DUP1 PUSH1 0x2 EQ ISZERO PUSH2 0x149 JUMPI PUSH1 0x1 DUP1 SLOAD PUSH2 0x130 SWAP2 PUSH2 0x1B1 JUMP JUMPDEST PUSH1 0x1 SWAP1 DUP2 SSTORE PUSH1 0x3 SLOAD PUSH2 0x141 SWAP2 PUSH2 0x1B1 JUMP JUMPDEST PUSH1 0x3 SSTORE PUSH2 0x16C JUMP JUMPDEST PUSH1 0x2 SLOAD PUSH2 0x157 SWAP1 PUSH1 0x1 PUSH2 0x1B1 JUMP JUMPDEST PUSH1 0x2 SSTORE PUSH1 0x3 SLOAD PUSH2 0x168 SWAP1 PUSH1 0x1 PUSH2 0x1B1 JUMP JUMPDEST PUSH1 0x3 SSTORE JUMPDEST POP JUMP JUMPDEST PUSH1 0x0 SLOAD DUP2 JUMP JUMPDEST PUSH1 0x0 PUSH1 0x20 DUP3 DUP5 SUB SLT ISZERO PUSH2 0x186 JUMPI DUP1 DUP2 REVERT JUMPDEST POP CALLDATALOAD SWAP2 SWAP1 POP JUMP JUMPDEST SWAP1 DUP2 MSTORE PUSH1 0x20 ADD SWAP1 JUMP JUMPDEST SWAP4 DUP5 MSTORE PUSH1 0x20 DUP5 ADD SWAP3 SWAP1 SWAP3 MSTORE PUSH1 0x40 DUP4 ADD MSTORE PUSH1 0x60 DUP3 ADD MSTORE PUSH1 0x80 ADD SWAP1 JUMP JUMPDEST PUSH1 0x0 DUP3 NOT DUP3 GT ISZERO PUSH2 0x1D0 JUMPI PUSH4 0x4E487B71 PUSH1 0xE0 SHL DUP2 MSTORE PUSH1 0x11 PUSH1 0x4 MSTORE PUSH1 0x24 DUP2 REVERT JUMPDEST POP ADD SWAP1 JUMP INVALID LOG2 PUSH5 0x6970667358 0x22 SLT KECCAK256 DUP2 RETURNDATACOPY 0x4E SWAP2 SLOAD 0x24 PUSH24 0x7CE6C5F56E535BD3204BBBE6BE98EF4112CF05759CCC48D0 0xEE PUSH5 0x736F6C6343 STOP ADDMOD STOP STOP CALLER ",
  "sha1": "dca7f3fb77e43d0f6d21038e142a9851e6807b81",
  "source": "// SPDX-License-Identifier: GPL-3.0\npragma solidity 0.8.0;\n\ncontract Election{\n    uint public AwlVoteCount;\n    uint public BnpVoteCount;\n    uint public Neutral;\n    uint public TotalVotes;\n\n    function placeVote(uint vote) public {\n        if(vote == 1){\n            AwlVoteCount = AwlVoteCount + 1;\n            TotalVotes = TotalVotes + 1;\n        }\n        if(vote== 2){\n            BnpVoteCount = BnpVoteCount + 1;\n            TotalVotes = TotalVotes + 1;\n\n        }\n\n        else{\n            Neutral = Neutral + 1;\n            TotalVotes = TotalVotes + 1;\n\n        }\n    }\n\n    function viewVoteStatus() public view returns(uint,uint, uint,uint){\n        return (AwlVoteCount,BnpVoteCount,Neutral,TotalVotes);\n    }\n\n}",
  "sourcePath": "contracts/Election.sol",
  "type": "contract"
}